{
  "contractName": "KYCValidation",
  "abi": [
    {
      "anonymous": false,
      "inputs": [
        {
          "indexed": true,
          "internalType": "address",
          "name": "previousOwner",
          "type": "address"
        },
        {
          "indexed": true,
          "internalType": "address",
          "name": "newOwner",
          "type": "address"
        }
      ],
      "name": "OwnershipTransferred",
      "type": "event"
    },
    {
      "inputs": [
        {
          "internalType": "address",
          "name": "",
          "type": "address"
        }
      ],
      "name": "KYCCompletedRegistry",
      "outputs": [
        {
          "internalType": "bool",
          "name": "",
          "type": "bool"
        }
      ],
      "stateMutability": "view",
      "type": "function",
      "constant": true
    },
    {
      "inputs": [],
      "name": "owner",
      "outputs": [
        {
          "internalType": "address",
          "name": "",
          "type": "address"
        }
      ],
      "stateMutability": "view",
      "type": "function",
      "constant": true
    },
    {
      "inputs": [],
      "name": "renounceOwnership",
      "outputs": [],
      "stateMutability": "nonpayable",
      "type": "function"
    },
    {
      "inputs": [
        {
          "internalType": "address",
          "name": "newOwner",
          "type": "address"
        }
      ],
      "name": "transferOwnership",
      "outputs": [],
      "stateMutability": "nonpayable",
      "type": "function"
    },
    {
      "inputs": [
        {
          "internalType": "address",
          "name": "_userAddress",
          "type": "address"
        }
      ],
      "name": "seKYCCompletedFor",
      "outputs": [],
      "stateMutability": "nonpayable",
      "type": "function"
    },
    {
      "inputs": [
        {
          "internalType": "address",
          "name": "_userAddress",
          "type": "address"
        }
      ],
      "name": "seKYCRevokedFor",
      "outputs": [],
      "stateMutability": "nonpayable",
      "type": "function"
    },
    {
      "inputs": [
        {
          "internalType": "address",
          "name": "_buyer",
          "type": "address"
        }
      ],
      "name": "requireKYCCompletion",
      "outputs": [],
      "stateMutability": "view",
      "type": "function",
      "constant": true
    }
  ],
  "bytecode": "0x608060405234801561001057600080fd5b5061002d61002261003260201b60201c565b61003a60201b60201c565b6100fe565b600033905090565b60008060009054906101000a900473ffffffffffffffffffffffffffffffffffffffff169050816000806101000a81548173ffffffffffffffffffffffffffffffffffffffff021916908373ffffffffffffffffffffffffffffffffffffffff1602179055508173ffffffffffffffffffffffffffffffffffffffff168173ffffffffffffffffffffffffffffffffffffffff167f8be0079c531659141344cd1fd0a4f28419497f9722a3daafe3b4186f6b6457e060405160405180910390a35050565b6107fc8061010d6000396000f3fe608060405234801561001057600080fd5b506004361061007d5760003560e01c806387c1172f1161005b57806387c1172f146100d85780638da5cb5b146100f4578063b33d5a1f14610112578063f2fde38b1461012e5761007d565b806311e1464b1461008257806337d6c8821461009e578063715018a6146100ce575b600080fd5b61009c60048036038101906100979190610598565b61014a565b005b6100b860048036038101906100b39190610598565b610195565b6040516100c591906105e0565b60405180910390f35b6100d66101b5565b005b6100f260048036038101906100ed9190610598565b61023d565b005b6100fc610298565b604051610109919061060a565b60405180910390f35b61012c60048036038101906101279190610598565b6102c1565b005b61014860048036038101906101439190610598565b61031b565b005b61015381610413565b610192576040517f08c379a0000000000000000000000000000000000000000000000000000000008152600401610189906106a8565b60405180910390fd5b50565b60016020528060005260406000206000915054906101000a900460ff1681565b6101bd610469565b73ffffffffffffffffffffffffffffffffffffffff166101db610298565b73ffffffffffffffffffffffffffffffffffffffff1614610231576040517f08c379a000000000000000000000000000000000000000000000000000000000815260040161022890610714565b60405180910390fd5b61023b6000610471565b565b6000600160008373ffffffffffffffffffffffffffffffffffffffff1673ffffffffffffffffffffffffffffffffffffffff16815260200190815260200160002060006101000a81548160ff02191690831515021790555050565b60008060009054906101000a900473ffffffffffffffffffffffffffffffffffffffff16905090565b60018060008373ffffffffffffffffffffffffffffffffffffffff1673ffffffffffffffffffffffffffffffffffffffff16815260200190815260200160002060006101000a81548160ff02191690831515021790555050565b610323610469565b73ffffffffffffffffffffffffffffffffffffffff16610341610298565b73ffffffffffffffffffffffffffffffffffffffff1614610397576040517f08c379a000000000000000000000000000000000000000000000000000000000815260040161038e90610714565b60405180910390fd5b600073ffffffffffffffffffffffffffffffffffffffff168173ffffffffffffffffffffffffffffffffffffffff161415610407576040517f08c379a00000000000000000000000000000000000000000000000000000000081526004016103fe906107a6565b60405180910390fd5b61041081610471565b50565b6000600160008373ffffffffffffffffffffffffffffffffffffffff1673ffffffffffffffffffffffffffffffffffffffff16815260200190815260200160002060009054906101000a900460ff169050919050565b600033905090565b60008060009054906101000a900473ffffffffffffffffffffffffffffffffffffffff169050816000806101000a81548173ffffffffffffffffffffffffffffffffffffffff021916908373ffffffffffffffffffffffffffffffffffffffff1602179055508173ffffffffffffffffffffffffffffffffffffffff168173ffffffffffffffffffffffffffffffffffffffff167f8be0079c531659141344cd1fd0a4f28419497f9722a3daafe3b4186f6b6457e060405160405180910390a35050565b600080fd5b600073ffffffffffffffffffffffffffffffffffffffff82169050919050565b60006105658261053a565b9050919050565b6105758161055a565b811461058057600080fd5b50565b6000813590506105928161056c565b92915050565b6000602082840312156105ae576105ad610535565b5b60006105bc84828501610583565b91505092915050565b60008115159050919050565b6105da816105c5565b82525050565b60006020820190506105f560008301846105d1565b92915050565b6106048161055a565b82525050565b600060208201905061061f60008301846105fb565b92915050565b600082825260208201905092915050565b7f596f75206d75737420636f6d706c657465204b5943206265666f72652070757260008201527f63686173696e6720746f6b656e73000000000000000000000000000000000000602082015250565b6000610692602e83610625565b915061069d82610636565b604082019050919050565b600060208201905081810360008301526106c181610685565b9050919050565b7f4f776e61626c653a2063616c6c6572206973206e6f7420746865206f776e6572600082015250565b60006106fe602083610625565b9150610709826106c8565b602082019050919050565b6000602082019050818103600083015261072d816106f1565b9050919050565b7f4f776e61626c653a206e6577206f776e657220697320746865207a65726f206160008201527f6464726573730000000000000000000000000000000000000000000000000000602082015250565b6000610790602683610625565b915061079b82610734565b604082019050919050565b600060208201905081810360008301526107bf81610783565b905091905056fea26469706673582212203f27a98db68c59b9a4aaca2e7cf83f4946a7e9b6b09d4c01a0446c056a1dde0164736f6c634300080b0033",
  "immutableReferences": {},
  "source": "// SPDX-License-Identifier: MIT\n\npragma solidity ^0.8.11;\n\nimport \"@openzeppelin/contracts/access/Ownable.sol\";\n\ncontract KYCValidation is Ownable {\n    mapping(address => bool) public KYCCompletedRegistry;\n\n    function seKYCCompletedFor(address _userAddress) external {\n        KYCCompletedRegistry[_userAddress] = true;\n    }\n\n    function seKYCRevokedFor(address _userAddress) external {\n        KYCCompletedRegistry[_userAddress] = false;\n    }\n\n    function isKYCCompletedFor(address _userAddress)\n        internal\n        view\n        returns (bool)\n    {\n        return KYCCompletedRegistry[_userAddress];\n    }\n\n    function requireKYCCompletion(address _buyer) external view {\n        require(\n            isKYCCompletedFor(_buyer),\n            \"You must complete KYC before purchasing tokens\"\n        );\n    }\n}\n",
  "sourcePath": "/Users/bmarquis/Crypto/openzeppelin-tokenisation/contracts/source/KYCValidation.sol",
  "compiler": {
    "name": "solc",
    "version": "0.8.11+commit.d7f03943.Emscripten.clang"
  },
  "schemaVersion": "3.4.4",
  "updatedAt": "2022-01-19T17:55:29.810Z",
  "networkType": "ethereum",
  "devdoc": {
    "kind": "dev",
    "methods": {
      "owner()": {
        "details": "Returns the address of the current owner."
      },
      "renounceOwnership()": {
        "details": "Leaves the contract without owner. It will not be possible to call `onlyOwner` functions anymore. Can only be called by the current owner. NOTE: Renouncing ownership will leave the contract without an owner, thereby removing any functionality that is only available to the owner."
      },
      "transferOwnership(address)": {
        "details": "Transfers ownership of the contract to a new account (`newOwner`). Can only be called by the current owner."
      }
    },
    "version": 1
  },
  "userdoc": {
    "kind": "user",
    "methods": {},
    "version": 1
  }
}